{
  "contractName": "Token",
  "abi": [
    {
      "inputs": [
        {
          "internalType": "string",
          "name": "_name",
          "type": "string"
        },
        {
          "internalType": "string",
          "name": "_symbol",
          "type": "string"
        }
      ],
      "stateMutability": "nonpayable",
      "type": "constructor"
    },
    {
      "anonymous": false,
      "inputs": [
        {
          "indexed": true,
          "internalType": "address",
          "name": "owner",
          "type": "address"
        },
        {
          "indexed": true,
          "internalType": "address",
          "name": "approved",
          "type": "address"
        },
        {
          "indexed": true,
          "internalType": "uint256",
          "name": "tokenId",
          "type": "uint256"
        }
      ],
      "name": "Approval",
      "type": "event"
    },
    {
      "anonymous": false,
      "inputs": [
        {
          "indexed": true,
          "internalType": "address",
          "name": "owner",
          "type": "address"
        },
        {
          "indexed": true,
          "internalType": "address",
          "name": "operator",
          "type": "address"
        },
        {
          "indexed": false,
          "internalType": "bool",
          "name": "approved",
          "type": "bool"
        }
      ],
      "name": "ApprovalForAll",
      "type": "event"
    },
    {
      "anonymous": false,
      "inputs": [
        {
          "indexed": true,
          "internalType": "address",
          "name": "previousOwner",
          "type": "address"
        },
        {
          "indexed": true,
          "internalType": "address",
          "name": "newOwner",
          "type": "address"
        }
      ],
      "name": "OwnershipTransferred",
      "type": "event"
    },
    {
      "anonymous": false,
      "inputs": [
        {
          "indexed": false,
          "internalType": "uint256",
          "name": "_tokenId",
          "type": "uint256"
        },
        {
          "indexed": false,
          "internalType": "string",
          "name": "_metadata",
          "type": "string"
        }
      ],
      "name": "TokenCreated",
      "type": "event"
    },
    {
      "anonymous": false,
      "inputs": [
        {
          "indexed": true,
          "internalType": "address",
          "name": "from",
          "type": "address"
        },
        {
          "indexed": true,
          "internalType": "address",
          "name": "to",
          "type": "address"
        },
        {
          "indexed": true,
          "internalType": "uint256",
          "name": "tokenId",
          "type": "uint256"
        }
      ],
      "name": "Transfer",
      "type": "event"
    },
    {
      "inputs": [
        {
          "internalType": "address",
          "name": "to",
          "type": "address"
        },
        {
          "internalType": "uint256",
          "name": "tokenId",
          "type": "uint256"
        }
      ],
      "name": "approve",
      "outputs": [],
      "stateMutability": "nonpayable",
      "type": "function"
    },
    {
      "inputs": [
        {
          "internalType": "address",
          "name": "owner",
          "type": "address"
        }
      ],
      "name": "balanceOf",
      "outputs": [
        {
          "internalType": "uint256",
          "name": "",
          "type": "uint256"
        }
      ],
      "stateMutability": "view",
      "type": "function"
    },
    {
      "inputs": [
        {
          "internalType": "uint256",
          "name": "tokenId",
          "type": "uint256"
        }
      ],
      "name": "getApproved",
      "outputs": [
        {
          "internalType": "address",
          "name": "",
          "type": "address"
        }
      ],
      "stateMutability": "view",
      "type": "function"
    },
    {
      "inputs": [
        {
          "internalType": "address",
          "name": "owner",
          "type": "address"
        },
        {
          "internalType": "address",
          "name": "operator",
          "type": "address"
        }
      ],
      "name": "isApprovedForAll",
      "outputs": [
        {
          "internalType": "bool",
          "name": "",
          "type": "bool"
        }
      ],
      "stateMutability": "view",
      "type": "function"
    },
    {
      "inputs": [],
      "name": "isEnabled",
      "outputs": [
        {
          "internalType": "bool",
          "name": "",
          "type": "bool"
        }
      ],
      "stateMutability": "view",
      "type": "function"
    },
    {
      "inputs": [
        {
          "internalType": "uint256",
          "name": "",
          "type": "uint256"
        }
      ],
      "name": "metadataURI",
      "outputs": [
        {
          "internalType": "string",
          "name": "",
          "type": "string"
        }
      ],
      "stateMutability": "view",
      "type": "function"
    },
    {
      "inputs": [],
      "name": "name",
      "outputs": [
        {
          "internalType": "string",
          "name": "",
          "type": "string"
        }
      ],
      "stateMutability": "view",
      "type": "function"
    },
    {
      "inputs": [],
      "name": "owner",
      "outputs": [
        {
          "internalType": "address",
          "name": "",
          "type": "address"
        }
      ],
      "stateMutability": "view",
      "type": "function"
    },
    {
      "inputs": [
        {
          "internalType": "uint256",
          "name": "tokenId",
          "type": "uint256"
        }
      ],
      "name": "ownerOf",
      "outputs": [
        {
          "internalType": "address",
          "name": "",
          "type": "address"
        }
      ],
      "stateMutability": "view",
      "type": "function"
    },
    {
      "inputs": [],
      "name": "renounceOwnership",
      "outputs": [],
      "stateMutability": "nonpayable",
      "type": "function"
    },
    {
      "inputs": [
        {
          "internalType": "address",
          "name": "from",
          "type": "address"
        },
        {
          "internalType": "address",
          "name": "to",
          "type": "address"
        },
        {
          "internalType": "uint256",
          "name": "tokenId",
          "type": "uint256"
        }
      ],
      "name": "safeTransferFrom",
      "outputs": [],
      "stateMutability": "nonpayable",
      "type": "function"
    },
    {
      "inputs": [
        {
          "internalType": "address",
          "name": "from",
          "type": "address"
        },
        {
          "internalType": "address",
          "name": "to",
          "type": "address"
        },
        {
          "internalType": "uint256",
          "name": "tokenId",
          "type": "uint256"
        },
        {
          "internalType": "bytes",
          "name": "data",
          "type": "bytes"
        }
      ],
      "name": "safeTransferFrom",
      "outputs": [],
      "stateMutability": "nonpayable",
      "type": "function"
    },
    {
      "inputs": [
        {
          "internalType": "address",
          "name": "operator",
          "type": "address"
        },
        {
          "internalType": "bool",
          "name": "approved",
          "type": "bool"
        }
      ],
      "name": "setApprovalForAll",
      "outputs": [],
      "stateMutability": "nonpayable",
      "type": "function"
    },
    {
      "inputs": [
        {
          "internalType": "bytes4",
          "name": "interfaceId",
          "type": "bytes4"
        }
      ],
      "name": "supportsInterface",
      "outputs": [
        {
          "internalType": "bool",
          "name": "",
          "type": "bool"
        }
      ],
      "stateMutability": "view",
      "type": "function"
    },
    {
      "inputs": [],
      "name": "symbol",
      "outputs": [
        {
          "internalType": "string",
          "name": "",
          "type": "string"
        }
      ],
      "stateMutability": "view",
      "type": "function"
    },
    {
      "inputs": [
        {
          "internalType": "uint256",
          "name": "index",
          "type": "uint256"
        }
      ],
      "name": "tokenByIndex",
      "outputs": [
        {
          "internalType": "uint256",
          "name": "",
          "type": "uint256"
        }
      ],
      "stateMutability": "view",
      "type": "function"
    },
    {
      "inputs": [
        {
          "internalType": "address",
          "name": "owner",
          "type": "address"
        },
        {
          "internalType": "uint256",
          "name": "index",
          "type": "uint256"
        }
      ],
      "name": "tokenOfOwnerByIndex",
      "outputs": [
        {
          "internalType": "uint256",
          "name": "",
          "type": "uint256"
        }
      ],
      "stateMutability": "view",
      "type": "function"
    },
    {
      "inputs": [],
      "name": "totalSupply",
      "outputs": [
        {
          "internalType": "uint256",
          "name": "",
          "type": "uint256"
        }
      ],
      "stateMutability": "view",
      "type": "function"
    },
    {
      "inputs": [
        {
          "internalType": "address",
          "name": "from",
          "type": "address"
        },
        {
          "internalType": "address",
          "name": "to",
          "type": "address"
        },
        {
          "internalType": "uint256",
          "name": "tokenId",
          "type": "uint256"
        }
      ],
      "name": "transferFrom",
      "outputs": [],
      "stateMutability": "nonpayable",
      "type": "function"
    },
    {
      "inputs": [
        {
          "internalType": "address",
          "name": "newOwner",
          "type": "address"
        }
      ],
      "name": "transferOwnership",
      "outputs": [],
      "stateMutability": "nonpayable",
      "type": "function"
    },
    {
      "inputs": [
        {
          "internalType": "string",
          "name": "_metadata",
          "type": "string"
        }
      ],
      "name": "mintToken",
      "outputs": [],
      "stateMutability": "payable",
      "type": "function"
    },
    {
      "inputs": [
        {
          "internalType": "uint256",
          "name": "_tokenId",
          "type": "uint256"
        }
      ],
      "name": "tokenURI",
      "outputs": [
        {
          "internalType": "string",
          "name": "",
          "type": "string"
        }
      ],
      "stateMutability": "view",
      "type": "function"
    },
    {
      "inputs": [],
      "name": "getBalances",
      "outputs": [
        {
          "internalType": "uint256",
          "name": "_amount",
          "type": "uint256"
        }
      ],
      "stateMutability": "view",
      "type": "function"
    }
  ],
  "bytecode": "0x60806040523480156200001157600080fd5b50604051620037bf380380620037bf833981810160405281019062000037919062000316565b818181600090816200004a9190620005e6565b5080600190816200005c9190620005e6565b5050506200007f62000073620000ab60201b60201c565b620000b360201b60201c565b81600b9081620000909190620005e6565b5080600c9081620000a29190620005e6565b505050620006cd565b600033905090565b6000600a60009054906101000a900473ffffffffffffffffffffffffffffffffffffffff16905081600a60006101000a81548173ffffffffffffffffffffffffffffffffffffffff021916908373ffffffffffffffffffffffffffffffffffffffff1602179055508173ffffffffffffffffffffffffffffffffffffffff168173ffffffffffffffffffffffffffffffffffffffff167f8be0079c531659141344cd1fd0a4f28419497f9722a3daafe3b4186f6b6457e060405160405180910390a35050565b6000604051905090565b600080fd5b600080fd5b600080fd5b600080fd5b6000601f19601f8301169050919050565b7f4e487b7100000000000000000000000000000000000000000000000000000000600052604160045260246000fd5b620001e28262000197565b810181811067ffffffffffffffff82111715620002045762000203620001a8565b5b80604052505050565b60006200021962000179565b9050620002278282620001d7565b919050565b600067ffffffffffffffff8211156200024a5762000249620001a8565b5b620002558262000197565b9050602081019050919050565b60005b838110156200028257808201518184015260208101905062000265565b8381111562000292576000848401525b50505050565b6000620002af620002a9846200022c565b6200020d565b905082815260208101848484011115620002ce57620002cd62000192565b5b620002db84828562000262565b509392505050565b600082601f830112620002fb57620002fa6200018d565b5b81516200030d84826020860162000298565b91505092915050565b6000806040838503121562000330576200032f62000183565b5b600083015167ffffffffffffffff81111562000351576200035062000188565b5b6200035f85828601620002e3565b925050602083015167ffffffffffffffff81111562000383576200038262000188565b5b6200039185828601620002e3565b9150509250929050565b600081519050919050565b7f4e487b7100000000000000000000000000000000000000000000000000000000600052602260045260246000fd5b60006002820490506001821680620003ee57607f821691505b602082108103620004045762000403620003a6565b5b50919050565b60008190508160005260206000209050919050565b60006020601f8301049050919050565b600082821b905092915050565b6000600883026200046e7fffffffffffffffffffffffffffffffffffffffffffffffffffffffffffffffff826200042f565b6200047a86836200042f565b95508019841693508086168417925050509392505050565b6000819050919050565b6000819050919050565b6000620004c7620004c1620004bb8462000492565b6200049c565b62000492565b9050919050565b6000819050919050565b620004e383620004a6565b620004fb620004f282620004ce565b8484546200043c565b825550505050565b600090565b6200051262000503565b6200051f818484620004d8565b505050565b5b8181101562000547576200053b60008262000508565b60018101905062000525565b5050565b601f821115620005965762000560816200040a565b6200056b846200041f565b810160208510156200057b578190505b620005936200058a856200041f565b83018262000524565b50505b505050565b600082821c905092915050565b6000620005bb600019846008026200059b565b1980831691505092915050565b6000620005d68383620005a8565b9150826002028217905092915050565b620005f1826200039b565b67ffffffffffffffff8111156200060d576200060c620001a8565b5b620006198254620003d5565b620006268282856200054b565b600060209050601f8311600181146200065e576000841562000649578287015190505b620006558582620005c8565b865550620006c5565b601f1984166200066e866200040a565b60005b82811015620006985784890151825560018201915060208501945060208101905062000671565b86831015620006b85784890151620006b4601f891682620005a8565b8355505b6001600288020188555050505b505050505050565b6130e280620006dd6000396000f3fe60806040526004361061013f5760003560e01c80634f6ccce7116100b657806395d89b411161006f57806395d89b4114610474578063a22cb4651461049f578063b88d4fde146104c8578063c87b56dd146104f1578063e985e9c51461052e578063f2fde38b1461056b5761013f565b80634f6ccce7146103505780636352211e1461038d5780636aa633b6146103ca57806370a08231146103f5578063715018a6146104325780638da5cb5b146104495761013f565b80630c183843116101085780630c1838431461023d57806318160ddd1461027a57806323b872dd146102a55780632f745c59146102ce57806333eba49a1461030b57806342842e0e146103275761013f565b8062113e081461014457806301ffc9a71461016f57806306fdde03146101ac578063081812fc146101d7578063095ea7b314610214575b600080fd5b34801561015057600080fd5b50610159610594565b6040516101669190611fbe565b60405180910390f35b34801561017b57600080fd5b5061019660048036038101906101919190612045565b6105a3565b6040516101a3919061208d565b60405180910390f35b3480156101b857600080fd5b506101c161061d565b6040516101ce9190612141565b60405180910390f35b3480156101e357600080fd5b506101fe60048036038101906101f9919061218f565b6106af565b60405161020b91906121fd565b60405180910390f35b34801561022057600080fd5b5061023b60048036038101906102369190612244565b6106f5565b005b34801561024957600080fd5b50610264600480360381019061025f919061218f565b61080c565b6040516102719190612141565b60405180910390f35b34801561028657600080fd5b5061028f6108ac565b60405161029c9190611fbe565b60405180910390f35b3480156102b157600080fd5b506102cc60048036038101906102c79190612284565b6108b9565b005b3480156102da57600080fd5b506102f560048036038101906102f09190612244565b610919565b6040516103029190611fbe565b60405180910390f35b6103256004803603810190610320919061240c565b6109be565b005b34801561033357600080fd5b5061034e60048036038101906103499190612284565b610a25565b005b34801561035c57600080fd5b506103776004803603810190610372919061218f565b610a45565b6040516103849190611fbe565b60405180910390f35b34801561039957600080fd5b506103b460048036038101906103af919061218f565b610ab6565b6040516103c191906121fd565b60405180910390f35b3480156103d657600080fd5b506103df610b67565b6040516103ec919061208d565b60405180910390f35b34801561040157600080fd5b5061041c60048036038101906104179190612455565b610b7a565b6040516104299190611fbe565b60405180910390f35b34801561043e57600080fd5b50610447610c31565b005b34801561045557600080fd5b5061045e610c45565b60405161046b91906121fd565b60405180910390f35b34801561048057600080fd5b50610489610c6f565b6040516104969190612141565b60405180910390f35b3480156104ab57600080fd5b506104c660048036038101906104c191906124ae565b610d01565b005b3480156104d457600080fd5b506104ef60048036038101906104ea919061258f565b610d17565b005b3480156104fd57600080fd5b506105186004803603810190610513919061218f565b610d79565b6040516105259190612141565b60405180910390f35b34801561053a57600080fd5b5061055560048036038101906105509190612612565b610e1e565b604051610562919061208d565b60405180910390f35b34801561057757600080fd5b50610592600480360381019061058d9190612455565b610eb2565b005b600061059e6108ac565b905090565b60007f780e9d63000000000000000000000000000000000000000000000000000000007bffffffffffffffffffffffffffffffffffffffffffffffffffffffff1916827bffffffffffffffffffffffffffffffffffffffffffffffffffffffff19161480610616575061061582610f35565b5b9050919050565b60606000805461062c90612681565b80601f016020809104026020016040519081016040528092919081815260200182805461065890612681565b80156106a55780601f1061067a576101008083540402835291602001916106a5565b820191906000526020600020905b81548152906001019060200180831161068857829003601f168201915b5050505050905090565b60006106ba82611017565b6004600083815260200190815260200160002060009054906101000a900473ffffffffffffffffffffffffffffffffffffffff169050919050565b600061070082610ab6565b90508073ffffffffffffffffffffffffffffffffffffffff168373ffffffffffffffffffffffffffffffffffffffff1603610770576040517f08c379a000000000000000000000000000000000000000000000000000000000815260040161076790612724565b60405180910390fd5b8073ffffffffffffffffffffffffffffffffffffffff1661078f611062565b73ffffffffffffffffffffffffffffffffffffffff1614806107be57506107bd816107b8611062565b610e1e565b5b6107fd576040517f08c379a00000000000000000000000000000000000000000000000000000000081526004016107f4906127b6565b60405180910390fd5b610807838361106a565b505050565b600e602052806000526040600020600091509050805461082b90612681565b80601f016020809104026020016040519081016040528092919081815260200182805461085790612681565b80156108a45780601f10610879576101008083540402835291602001916108a4565b820191906000526020600020905b81548152906001019060200180831161088757829003601f168201915b505050505081565b6000600880549050905090565b6108ca6108c4611062565b82611123565b610909576040517f08c379a000000000000000000000000000000000000000000000000000000000815260040161090090612848565b60405180910390fd5b6109148383836111b8565b505050565b600061092483610b7a565b8210610965576040517f08c379a000000000000000000000000000000000000000000000000000000000815260040161095c906128da565b60405180910390fd5b600660008473ffffffffffffffffffffffffffffffffffffffff1673ffffffffffffffffffffffffffffffffffffffff168152602001908152602001600020600083815260200190815260200160002054905092915050565b6109c661141e565b600060016109d26108ac565b6109dc9190612929565b90506109e8338261149c565b7f5d3ac5872118b949a1f8db596134a0e1587ecf18f2203bb1e3ea420c3c3f8fa98183604051610a1992919061297f565b60405180910390a15050565b610a4083838360405180602001604052806000815250610d17565b505050565b6000610a4f6108ac565b8210610a90576040517f08c379a0000000000000000000000000000000000000000000000000000000008152600401610a8790612a21565b60405180910390fd5b60088281548110610aa457610aa3612a41565b5b90600052602060002001549050919050565b6000806002600084815260200190815260200160002060009054906101000a900473ffffffffffffffffffffffffffffffffffffffff169050600073ffffffffffffffffffffffffffffffffffffffff168173ffffffffffffffffffffffffffffffffffffffff1603610b5e576040517f08c379a0000000000000000000000000000000000000000000000000000000008152600401610b5590612abc565b60405180910390fd5b80915050919050565b600d60009054906101000a900460ff1681565b60008073ffffffffffffffffffffffffffffffffffffffff168273ffffffffffffffffffffffffffffffffffffffff1603610bea576040517f08c379a0000000000000000000000000000000000000000000000000000000008152600401610be190612b4e565b60405180910390fd5b600360008373ffffffffffffffffffffffffffffffffffffffff1673ffffffffffffffffffffffffffffffffffffffff168152602001908152602001600020549050919050565b610c3961141e565b610c436000611675565b565b6000600a60009054906101000a900473ffffffffffffffffffffffffffffffffffffffff16905090565b606060018054610c7e90612681565b80601f0160208091040260200160405190810160405280929190818152602001828054610caa90612681565b8015610cf75780601f10610ccc57610100808354040283529160200191610cf7565b820191906000526020600020905b815481529060010190602001808311610cda57829003601f168201915b5050505050905090565b610d13610d0c611062565b838361173b565b5050565b610d28610d22611062565b83611123565b610d67576040517f08c379a0000000000000000000000000000000000000000000000000000000008152600401610d5e90612848565b60405180910390fd5b610d73848484846118a7565b50505050565b6060600e60008381526020019081526020016000208054610d9990612681565b80601f0160208091040260200160405190810160405280929190818152602001828054610dc590612681565b8015610e125780601f10610de757610100808354040283529160200191610e12565b820191906000526020600020905b815481529060010190602001808311610df557829003601f168201915b50505050509050919050565b6000600560008473ffffffffffffffffffffffffffffffffffffffff1673ffffffffffffffffffffffffffffffffffffffff16815260200190815260200160002060008373ffffffffffffffffffffffffffffffffffffffff1673ffffffffffffffffffffffffffffffffffffffff16815260200190815260200160002060009054906101000a900460ff16905092915050565b610eba61141e565b600073ffffffffffffffffffffffffffffffffffffffff168173ffffffffffffffffffffffffffffffffffffffff1603610f29576040517f08c379a0000000000000000000000000000000000000000000000000000000008152600401610f2090612be0565b60405180910390fd5b610f3281611675565b50565b60007f80ac58cd000000000000000000000000000000000000000000000000000000007bffffffffffffffffffffffffffffffffffffffffffffffffffffffff1916827bffffffffffffffffffffffffffffffffffffffffffffffffffffffff1916148061100057507f5b5e139f000000000000000000000000000000000000000000000000000000007bffffffffffffffffffffffffffffffffffffffffffffffffffffffff1916827bffffffffffffffffffffffffffffffffffffffffffffffffffffffff1916145b80611010575061100f82611903565b5b9050919050565b6110208161196d565b61105f576040517f08c379a000000000000000000000000000000000000000000000000000000000815260040161105690612abc565b60405180910390fd5b50565b600033905090565b816004600083815260200190815260200160002060006101000a81548173ffffffffffffffffffffffffffffffffffffffff021916908373ffffffffffffffffffffffffffffffffffffffff160217905550808273ffffffffffffffffffffffffffffffffffffffff166110dd83610ab6565b73ffffffffffffffffffffffffffffffffffffffff167f8c5be1e5ebec7d5bd14f71427d1e84f3dd0314c0f7b2291e5b200ac8c7c3b92560405160405180910390a45050565b60008061112f83610ab6565b90508073ffffffffffffffffffffffffffffffffffffffff168473ffffffffffffffffffffffffffffffffffffffff16148061117157506111708185610e1e565b5b806111af57508373ffffffffffffffffffffffffffffffffffffffff16611197846106af565b73ffffffffffffffffffffffffffffffffffffffff16145b91505092915050565b8273ffffffffffffffffffffffffffffffffffffffff166111d882610ab6565b73ffffffffffffffffffffffffffffffffffffffff161461122e576040517f08c379a000000000000000000000000000000000000000000000000000000000815260040161122590612c72565b60405180910390fd5b600073ffffffffffffffffffffffffffffffffffffffff168273ffffffffffffffffffffffffffffffffffffffff160361129d576040517f08c379a000000000000000000000000000000000000000000000000000000000815260040161129490612d04565b60405180910390fd5b6112a88383836119d9565b6112b360008261106a565b6001600360008573ffffffffffffffffffffffffffffffffffffffff1673ffffffffffffffffffffffffffffffffffffffff16815260200190815260200160002060008282546113039190612d24565b925050819055506001600360008473ffffffffffffffffffffffffffffffffffffffff1673ffffffffffffffffffffffffffffffffffffffff168152602001908152602001600020600082825461135a9190612929565b92505081905550816002600083815260200190815260200160002060006101000a81548173ffffffffffffffffffffffffffffffffffffffff021916908373ffffffffffffffffffffffffffffffffffffffff160217905550808273ffffffffffffffffffffffffffffffffffffffff168473ffffffffffffffffffffffffffffffffffffffff167fddf252ad1be2c89b69c2b068fc378daa952ba7f163c4a11628f55a4df523b3ef60405160405180910390a4611419838383611aeb565b505050565b611426611062565b73ffffffffffffffffffffffffffffffffffffffff16611444610c45565b73ffffffffffffffffffffffffffffffffffffffff161461149a576040517f08c379a000000000000000000000000000000000000000000000000000000000815260040161149190612da4565b60405180910390fd5b565b600073ffffffffffffffffffffffffffffffffffffffff168273ffffffffffffffffffffffffffffffffffffffff160361150b576040517f08c379a000000000000000000000000000000000000000000000000000000000815260040161150290612e10565b60405180910390fd5b6115148161196d565b15611554576040517f08c379a000000000000000000000000000000000000000000000000000000000815260040161154b90612e7c565b60405180910390fd5b611560600083836119d9565b6001600360008473ffffffffffffffffffffffffffffffffffffffff1673ffffffffffffffffffffffffffffffffffffffff16815260200190815260200160002060008282546115b09190612929565b92505081905550816002600083815260200190815260200160002060006101000a81548173ffffffffffffffffffffffffffffffffffffffff021916908373ffffffffffffffffffffffffffffffffffffffff160217905550808273ffffffffffffffffffffffffffffffffffffffff16600073ffffffffffffffffffffffffffffffffffffffff167fddf252ad1be2c89b69c2b068fc378daa952ba7f163c4a11628f55a4df523b3ef60405160405180910390a461167160008383611aeb565b5050565b6000600a60009054906101000a900473ffffffffffffffffffffffffffffffffffffffff16905081600a60006101000a81548173ffffffffffffffffffffffffffffffffffffffff021916908373ffffffffffffffffffffffffffffffffffffffff1602179055508173ffffffffffffffffffffffffffffffffffffffff168173ffffffffffffffffffffffffffffffffffffffff167f8be0079c531659141344cd1fd0a4f28419497f9722a3daafe3b4186f6b6457e060405160405180910390a35050565b8173ffffffffffffffffffffffffffffffffffffffff168373ffffffffffffffffffffffffffffffffffffffff16036117a9576040517f08c379a00000000000000000000000000000000000000000000000000000000081526004016117a090612ee8565b60405180910390fd5b80600560008573ffffffffffffffffffffffffffffffffffffffff1673ffffffffffffffffffffffffffffffffffffffff16815260200190815260200160002060008473ffffffffffffffffffffffffffffffffffffffff1673ffffffffffffffffffffffffffffffffffffffff16815260200190815260200160002060006101000a81548160ff0219169083151502179055508173ffffffffffffffffffffffffffffffffffffffff168373ffffffffffffffffffffffffffffffffffffffff167f17307eab39ab6107e8899845ad3d59bd9653f200f220920489ca2b5937696c318360405161189a919061208d565b60405180910390a3505050565b6118b28484846111b8565b6118be84848484611af0565b6118fd576040517f08c379a00000000000000000000000000000000000000000000000000000000081526004016118f490612f7a565b60405180910390fd5b50505050565b60007f01ffc9a7000000000000000000000000000000000000000000000000000000007bffffffffffffffffffffffffffffffffffffffffffffffffffffffff1916827bffffffffffffffffffffffffffffffffffffffffffffffffffffffff1916149050919050565b60008073ffffffffffffffffffffffffffffffffffffffff166002600084815260200190815260200160002060009054906101000a900473ffffffffffffffffffffffffffffffffffffffff1673ffffffffffffffffffffffffffffffffffffffff1614159050919050565b6119e4838383611c77565b600073ffffffffffffffffffffffffffffffffffffffff168373ffffffffffffffffffffffffffffffffffffffff1603611a2657611a2181611c7c565b611a65565b8173ffffffffffffffffffffffffffffffffffffffff168373ffffffffffffffffffffffffffffffffffffffff1614611a6457611a638382611cc5565b5b5b600073ffffffffffffffffffffffffffffffffffffffff168273ffffffffffffffffffffffffffffffffffffffff1603611aa757611aa281611e32565b611ae6565b8273ffffffffffffffffffffffffffffffffffffffff168273ffffffffffffffffffffffffffffffffffffffff1614611ae557611ae48282611f03565b5b5b505050565b505050565b6000611b118473ffffffffffffffffffffffffffffffffffffffff16611f82565b15611c6a578373ffffffffffffffffffffffffffffffffffffffff1663150b7a02611b3a611062565b8786866040518563ffffffff1660e01b8152600401611b5c9493929190612fef565b6020604051808303816000875af1925050508015611b9857506040513d601f19601f82011682018060405250810190611b959190613050565b60015b611c1a573d8060008114611bc8576040519150601f19603f3d011682016040523d82523d6000602084013e611bcd565b606091505b506000815103611c12576040517f08c379a0000000000000000000000000000000000000000000000000000000008152600401611c0990612f7a565b60405180910390fd5b805181602001fd5b63150b7a0260e01b7bffffffffffffffffffffffffffffffffffffffffffffffffffffffff1916817bffffffffffffffffffffffffffffffffffffffffffffffffffffffff191614915050611c6f565b600190505b949350505050565b505050565b6008805490506009600083815260200190815260200160002081905550600881908060018154018082558091505060019003906000526020600020016000909190919091505550565b60006001611cd284610b7a565b611cdc9190612d24565b9050600060076000848152602001908152602001600020549050818114611dc1576000600660008673ffffffffffffffffffffffffffffffffffffffff1673ffffffffffffffffffffffffffffffffffffffff168152602001908152602001600020600084815260200190815260200160002054905080600660008773ffffffffffffffffffffffffffffffffffffffff1673ffffffffffffffffffffffffffffffffffffffff168152602001908152602001600020600084815260200190815260200160002081905550816007600083815260200190815260200160002081905550505b6007600084815260200190815260200160002060009055600660008573ffffffffffffffffffffffffffffffffffffffff1673ffffffffffffffffffffffffffffffffffffffff16815260200190815260200160002060008381526020019081526020016000206000905550505050565b60006001600880549050611e469190612d24565b9050600060096000848152602001908152602001600020549050600060088381548110611e7657611e75612a41565b5b906000526020600020015490508060088381548110611e9857611e97612a41565b5b906000526020600020018190555081600960008381526020019081526020016000208190555060096000858152602001908152602001600020600090556008805480611ee757611ee661307d565b5b6001900381819060005260206000200160009055905550505050565b6000611f0e83610b7a565b905081600660008573ffffffffffffffffffffffffffffffffffffffff1673ffffffffffffffffffffffffffffffffffffffff168152602001908152602001600020600083815260200190815260200160002081905550806007600084815260200190815260200160002081905550505050565b6000808273ffffffffffffffffffffffffffffffffffffffff163b119050919050565b6000819050919050565b611fb881611fa5565b82525050565b6000602082019050611fd36000830184611faf565b92915050565b6000604051905090565b600080fd5b600080fd5b60007fffffffff0000000000000000000000000000000000000000000000000000000082169050919050565b61202281611fed565b811461202d57600080fd5b50565b60008135905061203f81612019565b92915050565b60006020828403121561205b5761205a611fe3565b5b600061206984828501612030565b91505092915050565b60008115159050919050565b61208781612072565b82525050565b60006020820190506120a2600083018461207e565b92915050565b600081519050919050565b600082825260208201905092915050565b60005b838110156120e25780820151818401526020810190506120c7565b838111156120f1576000848401525b50505050565b6000601f19601f8301169050919050565b6000612113826120a8565b61211d81856120b3565b935061212d8185602086016120c4565b612136816120f7565b840191505092915050565b6000602082019050818103600083015261215b8184612108565b905092915050565b61216c81611fa5565b811461217757600080fd5b50565b60008135905061218981612163565b92915050565b6000602082840312156121a5576121a4611fe3565b5b60006121b38482850161217a565b91505092915050565b600073ffffffffffffffffffffffffffffffffffffffff82169050919050565b60006121e7826121bc565b9050919050565b6121f7816121dc565b82525050565b600060208201905061221260008301846121ee565b92915050565b612221816121dc565b811461222c57600080fd5b50565b60008135905061223e81612218565b92915050565b6000806040838503121561225b5761225a611fe3565b5b60006122698582860161222f565b925050602061227a8582860161217a565b9150509250929050565b60008060006060848603121561229d5761229c611fe3565b5b60006122ab8682870161222f565b93505060206122bc8682870161222f565b92505060406122cd8682870161217a565b9150509250925092565b600080fd5b600080fd5b7f4e487b7100000000000000000000000000000000000000000000000000000000600052604160045260246000fd5b612319826120f7565b810181811067ffffffffffffffff82111715612338576123376122e1565b5b80604052505050565b600061234b611fd9565b90506123578282612310565b919050565b600067ffffffffffffffff821115612377576123766122e1565b5b612380826120f7565b9050602081019050919050565b82818337600083830152505050565b60006123af6123aa8461235c565b612341565b9050828152602081018484840111156123cb576123ca6122dc565b5b6123d684828561238d565b509392505050565b600082601f8301126123f3576123f26122d7565b5b813561240384826020860161239c565b91505092915050565b60006020828403121561242257612421611fe3565b5b600082013567ffffffffffffffff8111156124405761243f611fe8565b5b61244c848285016123de565b91505092915050565b60006020828403121561246b5761246a611fe3565b5b60006124798482850161222f565b91505092915050565b61248b81612072565b811461249657600080fd5b50565b6000813590506124a881612482565b92915050565b600080604083850312156124c5576124c4611fe3565b5b60006124d38582860161222f565b92505060206124e485828601612499565b9150509250929050565b600067ffffffffffffffff821115612509576125086122e1565b5b612512826120f7565b9050602081019050919050565b600061253261252d846124ee565b612341565b90508281526020810184848401111561254e5761254d6122dc565b5b61255984828561238d565b509392505050565b600082601f830112612576576125756122d7565b5b813561258684826020860161251f565b91505092915050565b600080600080608085870312156125a9576125a8611fe3565b5b60006125b78782880161222f565b94505060206125c88782880161222f565b93505060406125d98782880161217a565b925050606085013567ffffffffffffffff8111156125fa576125f9611fe8565b5b61260687828801612561565b91505092959194509250565b6000806040838503121561262957612628611fe3565b5b60006126378582860161222f565b92505060206126488582860161222f565b9150509250929050565b7f4e487b7100000000000000000000000000000000000000000000000000000000600052602260045260246000fd5b6000600282049050600182168061269957607f821691505b6020821081036126ac576126ab612652565b5b50919050565b7f4552433732313a20617070726f76616c20746f2063757272656e74206f776e6560008201527f7200000000000000000000000000000000000000000000000000000000000000602082015250565b600061270e6021836120b3565b9150612719826126b2565b604082019050919050565b6000602082019050818103600083015261273d81612701565b9050919050565b7f4552433732313a20617070726f76652063616c6c6572206973206e6f7420746f60008201527f6b656e206f776e6572206e6f7220617070726f76656420666f7220616c6c0000602082015250565b60006127a0603e836120b3565b91506127ab82612744565b604082019050919050565b600060208201905081810360008301526127cf81612793565b9050919050565b7f4552433732313a2063616c6c6572206973206e6f7420746f6b656e206f776e6560008201527f72206e6f7220617070726f766564000000000000000000000000000000000000602082015250565b6000612832602e836120b3565b915061283d826127d6565b604082019050919050565b6000602082019050818103600083015261286181612825565b9050919050565b7f455243373231456e756d657261626c653a206f776e657220696e646578206f7560008201527f74206f6620626f756e6473000000000000000000000000000000000000000000602082015250565b60006128c4602b836120b3565b91506128cf82612868565b604082019050919050565b600060208201905081810360008301526128f3816128b7565b9050919050565b7f4e487b7100000000000000000000000000000000000000000000000000000000600052601160045260246000fd5b600061293482611fa5565b915061293f83611fa5565b9250827fffffffffffffffffffffffffffffffffffffffffffffffffffffffffffffffff03821115612974576129736128fa565b5b828201905092915050565b60006040820190506129946000830185611faf565b81810360208301526129a68184612108565b90509392505050565b7f455243373231456e756d657261626c653a20676c6f62616c20696e646578206f60008201527f7574206f6620626f756e64730000000000000000000000000000000000000000602082015250565b6000612a0b602c836120b3565b9150612a16826129af565b604082019050919050565b60006020820190508181036000830152612a3a816129fe565b9050919050565b7f4e487b7100000000000000000000000000000000000000000000000000000000600052603260045260246000fd5b7f4552433732313a20696e76616c696420746f6b656e2049440000000000000000600082015250565b6000612aa66018836120b3565b9150612ab182612a70565b602082019050919050565b60006020820190508181036000830152612ad581612a99565b9050919050565b7f4552433732313a2061646472657373207a65726f206973206e6f74206120766160008201527f6c6964206f776e65720000000000000000000000000000000000000000000000602082015250565b6000612b386029836120b3565b9150612b4382612adc565b604082019050919050565b60006020820190508181036000830152612b6781612b2b565b9050919050565b7f4f776e61626c653a206e6577206f776e657220697320746865207a65726f206160008201527f6464726573730000000000000000000000000000000000000000000000000000602082015250565b6000612bca6026836120b3565b9150612bd582612b6e565b604082019050919050565b60006020820190508181036000830152612bf981612bbd565b9050919050565b7f4552433732313a207472616e736665722066726f6d20696e636f72726563742060008201527f6f776e6572000000000000000000000000000000000000000000000000000000602082015250565b6000612c5c6025836120b3565b9150612c6782612c00565b604082019050919050565b60006020820190508181036000830152612c8b81612c4f565b9050919050565b7f4552433732313a207472616e7366657220746f20746865207a65726f2061646460008201527f7265737300000000000000000000000000000000000000000000000000000000602082015250565b6000612cee6024836120b3565b9150612cf982612c92565b604082019050919050565b60006020820190508181036000830152612d1d81612ce1565b9050919050565b6000612d2f82611fa5565b9150612d3a83611fa5565b925082821015612d4d57612d4c6128fa565b5b828203905092915050565b7f4f776e61626c653a2063616c6c6572206973206e6f7420746865206f776e6572600082015250565b6000612d8e6020836120b3565b9150612d9982612d58565b602082019050919050565b60006020820190508181036000830152612dbd81612d81565b9050919050565b7f4552433732313a206d696e7420746f20746865207a65726f2061646472657373600082015250565b6000612dfa6020836120b3565b9150612e0582612dc4565b602082019050919050565b60006020820190508181036000830152612e2981612ded565b9050919050565b7f4552433732313a20746f6b656e20616c7265616479206d696e74656400000000600082015250565b6000612e66601c836120b3565b9150612e7182612e30565b602082019050919050565b60006020820190508181036000830152612e9581612e59565b9050919050565b7f4552433732313a20617070726f766520746f2063616c6c657200000000000000600082015250565b6000612ed26019836120b3565b9150612edd82612e9c565b602082019050919050565b60006020820190508181036000830152612f0181612ec5565b9050919050565b7f4552433732313a207472616e7366657220746f206e6f6e20455243373231526560008201527f63656976657220696d706c656d656e7465720000000000000000000000000000602082015250565b6000612f646032836120b3565b9150612f6f82612f08565b604082019050919050565b60006020820190508181036000830152612f9381612f57565b9050919050565b600081519050919050565b600082825260208201905092915050565b6000612fc182612f9a565b612fcb8185612fa5565b9350612fdb8185602086016120c4565b612fe4816120f7565b840191505092915050565b600060808201905061300460008301876121ee565b61301160208301866121ee565b61301e6040830185611faf565b81810360608301526130308184612fb6565b905095945050505050565b60008151905061304a81612019565b92915050565b60006020828403121561306657613065611fe3565b5b60006130748482850161303b565b91505092915050565b7f4e487b7100000000000000000000000000000000000000000000000000000000600052603160045260246000fdfea2646970667358221220f1edfd8f4286ab6c2bc5ed3e88d7bef990db4d9943d588f83cf412f17fe9a7b964736f6c634300080f0033",
  "immutableReferences": {},
  "source": "// SPDX-License-Identifier: MIT\npragma solidity ^0.8.15;\n\nimport \"../node_modules/@openzeppelin/contracts/token/ERC721/extensions/ERC721Enumerable.sol\";\nimport \"../node_modules/@openzeppelin/contracts/access/Ownable.sol\";\n\ncontract Token is ERC721Enumerable,Ownable{\n  string tokenName;\n  string tokenSymbol;\n\n  bool public isEnabled;\n  mapping(uint=>string) public metadataURI;\n  event TokenCreated(uint _tokenId, string _metadata);\n\n  //   \n  constructor(string memory _name, string memory _symbol) ERC721(_name,_symbol){\n    // _mint() :     \n  tokenName = _name;\n  tokenSymbol = _symbol;\n  }\n\n  // mint  \n  function mintToken(string memory _metadata) public payable onlyOwner{\n      uint tokenId = totalSupply() + 1;\n    _mint(msg.sender, tokenId);\n    emit TokenCreated(tokenId, _metadata);\n  }\n\n  function tokenURI(uint _tokenId) public override view returns(string memory){\n      return metadataURI[_tokenId];\n  }\n\n  function getBalances() public view returns(uint256 _amount){\n    _amount = totalSupply();\n    return _amount;\n  }\n}",
  "sourcePath": "/Users/hancoco/Desktop/gitHub/random_token/mint_token/truffle/contracts/Token.sol",
  "compiler": {
    "name": "solc",
    "version": "0.8.15+commit.e14f2714.Emscripten.clang"
  },
  "schemaVersion": "3.4.10",
  "updatedAt": "2022-11-06T13:02:59.881Z",
  "devdoc": {
    "kind": "dev",
    "methods": {
      "approve(address,uint256)": {
        "details": "See {IERC721-approve}."
      },
      "balanceOf(address)": {
        "details": "See {IERC721-balanceOf}."
      },
      "getApproved(uint256)": {
        "details": "See {IERC721-getApproved}."
      },
      "isApprovedForAll(address,address)": {
        "details": "See {IERC721-isApprovedForAll}."
      },
      "name()": {
        "details": "See {IERC721Metadata-name}."
      },
      "owner()": {
        "details": "Returns the address of the current owner."
      },
      "ownerOf(uint256)": {
        "details": "See {IERC721-ownerOf}."
      },
      "renounceOwnership()": {
        "details": "Leaves the contract without owner. It will not be possible to call `onlyOwner` functions anymore. Can only be called by the current owner. NOTE: Renouncing ownership will leave the contract without an owner, thereby removing any functionality that is only available to the owner."
      },
      "safeTransferFrom(address,address,uint256)": {
        "details": "See {IERC721-safeTransferFrom}."
      },
      "safeTransferFrom(address,address,uint256,bytes)": {
        "details": "See {IERC721-safeTransferFrom}."
      },
      "setApprovalForAll(address,bool)": {
        "details": "See {IERC721-setApprovalForAll}."
      },
      "supportsInterface(bytes4)": {
        "details": "See {IERC165-supportsInterface}."
      },
      "symbol()": {
        "details": "See {IERC721Metadata-symbol}."
      },
      "tokenByIndex(uint256)": {
        "details": "See {IERC721Enumerable-tokenByIndex}."
      },
      "tokenOfOwnerByIndex(address,uint256)": {
        "details": "See {IERC721Enumerable-tokenOfOwnerByIndex}."
      },
      "totalSupply()": {
        "details": "See {IERC721Enumerable-totalSupply}."
      },
      "transferFrom(address,address,uint256)": {
        "details": "See {IERC721-transferFrom}."
      },
      "transferOwnership(address)": {
        "details": "Transfers ownership of the contract to a new account (`newOwner`). Can only be called by the current owner."
      }
    },
    "version": 1
  },
  "userdoc": {
    "kind": "user",
    "methods": {},
    "version": 1
  }
}